:020000040000FA
:10000000500ED36E7E6A7F6A946A826A8B6A816AB6
:100010008A6A936A00688B9000000000000000B0BC
:1000200015EF00F08B9216EF00F08B8200000000BD
:1000300000008B800000000000008B90000000009A
:10004000000000B227EF00F08B9228EF00F08B82C7
:100050000000000000008B800000000000008B907A
:1000600000000000000000B439EF00F08B923AEF7E
:1000700000F08B820000000000008B800000000078
:1000800000008B9000000000000000B64BEF00F075
:100090008B924CEF00F08B820000000000008B8000
:1000A0000000000000008B9000000000000000B87D
:1000B0005DEF00F08B925EEF00F08B82000000009D
:1000C00000008B800000000000008B90000000000A
:1000D000000000BA6FEF00F08B9270EF00F08B829F
:1000E0000000000000008B800000000000008B90EA
:1000F00000000000000000BC81EF00F08B9282EF56
:1001000000F08B820000000000008B8000000000E7
:1001100000008B9000000000000000BE93EF00F094
:100120008B9294EF00F08B820000000000008B8027
:10013000000000000000002A0000000000000BEF9B
:0201400000F0CD
:020000040030CA
:0E0000000008191A0000800003C0030003402E
:00000001FF
