:020000040000FA
:10000000500ED36E7E6A7F6A946A826A8B6A016A36
:10001000006A816A8A6A936A0268938A938EAC84C2
:10002000190EAF6EB06AAC8AAB88AC98AB8E00008C
:1000300000000000000000000000000000000000C0
:1000400000000000000000000000000000000000B0
:1000500000000000000000000000000000000000A0
:100060000000000000000000000000000000000090
:100070000000000000000000000000000000000080
:100080000000000000000000000000000000000070
:100090000000000000000000000000000000000060
:1000A0000000000000000000000000000000000050
:1000B00000000000000000000000000000009EA8FA
:1000C00064EF00F001C0ADFF9EAA69EF00F0AECF73
:1000D00000F001C000F002C000F0000000000000CD
:0400E00017EF00F026
:020000040030CA
:0E0000000008191A0000800003C0030003402E
:00000001FF
