:020000040000FA
:10000000500E00000000000008EF00F008EF00F0C4
:1000100000000000000000000000000000000000E0
:10002000000015EF00F015EF00F0000000000000E8
:1000300000000000000000000000000022EF00F0BF
:1000400022EF00F0000000000000000000000000AF
:100050000000000000002FEF00F02FEF00F0000084
:100060000000000000000000000000000000000090
:100070003CEF00F03CEF00F000000000000000004A
:100080000000000000000000000049EF00F049EF10
:1000900000F0000000000000000000000000000070
:1000A0000000000056EF00F056EF00F000000000E6
:1000B000000000000000000000000000000063EFEE
:1000C00000F063EF00F000000000000000000000FE
:0C00D000000000000000000001EF00F044
:020000040030CA
:0E0000000008191A0000800003C0030003402E
:00000001FF
