:020000040000FA
:10000000500ED36E7E6A7F6A946A826A8B6A816AB6
:100010008A6A936A006A016A026A850ED56EF29452
:10002000F29A938A938EAC84190EAF6EB06AAC8A42
:10003000AB88AC98AB8E086A096A0A6A0B6A036AD5
:100040008B928B900D6A9EAA29EF00F0AECF0CF038
:100050000D2A0D5202E02FEF00F097EF00F0000E96
:10006000036237EF00F0010E0E6E3AEF00F00E6AF9
:100070003AEF00F00EB03FEF00F044EF00F00CC09C
:1000800003F0046A97EF00F0FF0E03624CEF00F0FC
:10009000010E0E6E4FEF00F00E6A4FEF00F00EB043
:1000A00054EF00F097EF00F0000E04625CEF00F0F8
:1000B000010E0E6E5FEF00F00E6A5FEF00F00EB003
:1000C00064EF00F066EF00F00CC007F0010E046270
:1000D0006EEF00F0010E0E6E71EF00F00E6A71EF20
:1000E00000F00EB076EF00F078EF00F00CC006F0F4
:1000F000020E046280EF00F0010E0E6E83EF00F03E
:100100000E6A83EF00F00EB088EF00F091EF00F080
:100110000CC005F0036A05C000F006C001F007C07E
:1001200002F004C013F0010E132613C004F0106A8D
:10013000000E0862A0EF00F0010E0E6EA3EF00F0BB
:100140000E6AA3EF00F00EB0A8EF00F0AAEF00F0E7
:1001500003EF01F0040E0862B2EF00F0010E0E6E24
:10016000B5EF00F00E6AB5EF00F00EB0BAEF00F098
:10017000BBEF00F01068030E0862C3EF00F0010E41
:100180000E6EC6EF00F00E6AC6EF00F00EB0CBEFB9
:1001900000F0CDEF00F00BC010F0020E0862D5EFBA
:1001A00000F0010E0E6ED8EF00F00E6AD8EF00F0EE
:1001B0000EB0DDEF00F0DFEF00F00AC010F0010E2E
:1001C0000862E7EF00F0010E0E6EEAEF00F00E6A33
:1001D000EAEF00F00EB0EFEF00F0F1EF00F009C031
:1001E00010F09EA8F7EF00F010C0ADFF0D2A0D52E1
:1001F00002E0FDEF00F003EF01F008C016F0010E81
:10020000165E16C008F0F2A4DCEF01F0F294C20E04
:10021000D76EC60ED66E00C016F0010E162616C09A
:1002200000F03C0E006219EF01F0010E0E6E1CEFA3
:1002300001F00E6A1CEF01F00EB021EF01F050EF5B
:1002400001F0006A01C018F0010E182618C001F074
:100250003C0E016230EF01F0010E0E6E33EF01F043
:100260000E6A33EF01F00EB038EF01F050EF01F0FD
:10027000016A02C01AF0010E1A261AC002F0180E06
:10028000026247EF01F0010E0E6E4AEF01F00E6AB6
:100290004AEF01F00EB04FEF01F050EF01F0026AAB
:1002A000000E086258EF01F0010E0E6E5BEF01F0D8
:1002B0000E6A5BEF01F00EB060EF01F068EF01F045
:1002C00000C009F001C00AF002C00BF0040E086E75
:1002D0008B928B901B6A090E026273EF01F0010E84
:1002E0000E6E76EF01F00E6A76EF01F00EB07BEF46
:1002F00001F09DEF01F0000E016283EF01F0010EAD
:100300000E6E86EF01F00E6A86EF01F00EB08BEFF5
:1003100001F09DEF01F0000E006293EF01F0010E7D
:100320000E6E96EF01F00E6A96EF01F00EB09BEFA5
:1003300001F09DEF01F0010E1B6E1BB0A2EF01F06A
:10034000A3EF01F08B821B6A130E0262ACEF01F087
:10035000010E0E6EAFEF01F00E6AAFEF01F00EB0BE
:10036000B4EF01F0D6EF01F0000E0162BCEF01F036
:10037000010E0E6EBFEF01F00E6ABFEF01F00EB07E
:10038000C4EF01F0D6EF01F0000E0062CCEF01F0F7
:10039000010E0E6ECFEF01F00E6ACFEF01F00EB03E
:1003A000D4EF01F0D6EF01F0010E1B6E1BB0DBEFB6
:0C03B00001F0DCEF01F08B8022EF00F088
:020000040030CA
:0E0000000008191A0000800003C0030003402E
:00000001FF
