:020000040000FA
:10000000500ED36E7E6A7F6A946A826A8B6A016A36
:10001000006A816A8A6A936A02688B900000000015
:10002000000002B017EF00F08B9218EF00F08B8207
:100030000000000000008B800000000000008B909A
:1000400000000000000002B229EF00F08B922AEFBE
:1000500000F08B820000000000008B800000000098
:1000600000008B9000000000000002B43BEF00F0A5
:100070008B923CEF00F08B820000000000008B8030
:100080000000000000008B9000000000000002B69D
:100090004DEF00F08B924EEF00F08B8200000000DD
:1000A00000008B800000000000008B90000000002A
:1000B000000002B85FEF00F08B9260EF00F08B82DF
:1000C0000000000000008B800000000000008B900A
:1000D00000000000000002BA71EF00F08B9272EF96
:1000E00000F08B820000000000008B800000000008
:1000F00000008B9000000000000002BC83EF00F0C5
:100100008B9284EF00F08B820000000000008B8057
:100110000000000000008B9000000000000002BE04
:1001200095EF00F08B9296EF00F08B8200000000BC
:1001300000008B80000000000000938A938EAC8446
:10014000190EAF6EB06AAC8AAB88AC98AB8E9EA825
:10015000ACEF00F002C0ADFF9EAAB1EF00F0AECF51
:1001600000F002500062B9EF00F0010E036EBCEF28
:1001700000F0036ABCEF00F003B0C1EF00F0C3EF82
:1001800000F055EF01F000C002F08B90000000007D
:10019000000002B0CFEF00F08B92D0EF00F08B8226
:1001A0000000000000008B800000000000008B9029
:1001B00000000000000002B2E1EF00F08B92E2EFDD
:1001C00000F08B820000000000008B800000000027
:1001D00000008B9000000000000002B4F3EF00F07C
:1001E0008B92F4EF00F08B820000000000008B8007
:1001F0000000000000008B9000000000000002B62C
:1002000005EF01F08B9206EF01F08B8200000000F9
:1002100000008B800000000000008B9000000000B8
:10022000000002B817EF01F08B9218EF01F08B82FB
:100230000000000000008B800000000000008B9098
:1002400000000000000002BA29EF01F08B922AEFB3
:1002500001F08B820000000000008B800000000095
:1002600000008B9000000000000002BC3BEF01F09A
:100270008B923CEF01F08B820000000000008B802D
:100280000000000000008B9000000000000002BE93
:100290004DEF01F08B924EEF01F08B8200000000D9
:1002A00000008B8000000000000000000000000043
:0402B000A7EF00F0C4
:020000040030CA
:0E0000000008191A0000800003C0030003402E
:00000001FF
