:020000040000FA
:10000000500ED36E7E6A7F6A946A826A8B6A016A36
:10001000006A816A8A6A936A0268938A938EAC84C2
:10002000190EAF6EB06AAC8AAB88AC98AB8E8B9071
:1000300000000000000002B021EF00F08B9222EFE0
:1000400000F08B820000000000008B8000000000A8
:1000500000008B9000000000000002B233EF00F0BF
:100060008B9234EF00F08B820000000000008B8048
:100070000000000000008B9000000000000002B4AF
:1000800045EF00F08B9246EF00F08B8200000000FD
:1000900000008B800000000000008B90000000003A
:1000A000000002B657EF00F08B9258EF00F08B8201
:1000B0000000000000008B800000000000008B901A
:1000C00000000000000002B869EF00F08B926AEFB8
:1000D00000F08B820000000000008B800000000018
:1000E00000008B9000000000000002BA7BEF00F0DF
:1000F0008B927CEF00F08B820000000000008B8070
:100100000000000000008B9000000000000002BC16
:100110008DEF00F08B928EEF00F08B8200000000DC
:1001200000008B800000000000008B9000000000A9
:10013000000002BE9FEF00F08B92A0EF00F08B82D8
:100140000000000000008B800000000000009EA85E
:10015000ACEF00F001C0ADFF9EAAB1EF00F0AECF52
:1001600000F000C001F000C002F00000000000003C
:0401700017EF00F095
:020000040030CA
:0E0000000008191A0000800003C0030003402E
:00000001FF
