:020000040000FA
:20C40000B24000D2081CF240FA001C1CF240FE00221CD243161CC243001C8243021C824352
:20C42000041CC243061CB24010004203B2405E015203B240100140035C3C32D0F8000343AA
:20C44000B29000F0081C0428B24000D4081C033CB2500002081C1C42081CB01336CF9253DA
:20C46000021C9253041CB290C800041C09288243041CD253001CF292001C0220C243001C35
:20C48000D293121C1820C293111C1520F2F00F002202F2D0F0002402B2F0F0FF2203B2D0F5
:20C4A0000F002403C293061C06205C42101CB0130ACFD253061CC293121C1B20C293111CBC
:20C4C0001820C243061C5C42001CB01304CDA292021C0F288243021CE2431D1CD242001CB5
:20C4E0001E1CC2431F1CC243201CC243211CB01336CEE292101C0320C293111C9E278243A9
:20C500004003824342031001F240FA001C1CF240FE00221CD243161C82430C1CC2430E1C88
:20C520008243021CC243061CC243001CB01398CCB013A6CE824C0A1C543CB013F0CF929248
:20C540000A1C1A1C072CD2430E1C1F420A1C1F821A1C063CC2430E1C1F421A1C1F820A1CE0
:20C56000824F0C1CD293121C1820C293111C1520F2F00F002202F2D0F0002402B2F0F0FFC2
:20C580002203B2D00F002403C293061C06205C42101CB0130ACFD253061CC293121C2120B0
:20C5A000C293111C1E20C243061C9253021CB2902D01021C16281C420C1C5D420E1CB013B3
:20C5C000C6C78243021CF24003001D1CD242001C1E1CC2431F1CC243201CC243211CB0138D
:20C5E00036CEF2900600101C0320C293111CA5278000DCCEB24000D2081CF240FA001C1C9C
:20C60000F240FE00221CD243161CC243001C8243021C8243041CC243061C5A3CB29000F08D
:20C62000081C0428B24000D4081C033CB2500002081C1C42081CB01336CF9253021C925327
:20C64000041CB290C800041C09288243041CD253001CF292001C0220C243001CD293121CC3
:20C660001820C293111C1520F2F00F002202F2D0F0002402B2F0F0FF2203B2D00F00240370
:20C68000C293061C06205C42101CB0130ACFD253061CC293121C1C20C293111C1920C243D1
:20C6A000061C5C42001CB01304CDB290C800021C0F288243021CD2431D1CD242001C1E1C10
:20C6C000C2431F1CC243201CC243211CB01336CEE293101C0320C293111CA0271001F24080
:20C6E000FA001C1CF240FE00221C82430C1CC2430E1C8243021CD243161CC243061CC24328
:20C70000001CB01362CDB013A6CE824C0A1C533CB013F0CF92920A1C1A1C072CD2430E1CDD
:20C720001F420A1C1F821A1C063CC2430E1C1F421A1C1F820A1C824F0C1CD293121C182008
:20C74000C293111C1520F2F00F002202F2D0F0002402B2F0F0FF2203B2D00F002403C29372
:20C76000061C06205C42101CB0130ACFD253061CC293121C2020C293111C1D20C243061C1B
:20C780009253021CB2902D01021C15281C420C1C5D420E1CB013C6C78243021CE2421D1CEC
:20C7A000D242001C1E1CC2431F1CC243201CC243211CB01336CEF292101C0320C293111C30
:20C7C000A72780005ECFF2D010002202B2D222035F42241C0C9F0E2CF2D010002202B2D2FF
:20C7E0002203B2F0F8FF2203F2F01F002202F2403400001C5F42241C0C9F1D285F42251CFC
:20C800000C9F192C5D930C24B2F0F8FF2203F2D020002202F2F03F002202E243001C0B3C77
:20C82000A2D22203B2F0FCFF2203F2F01F002202F2400500001C5F42251C0C9F1D285F42B2
:20C84000261C0C9F192C5D930C24B2F0F8FF2203F2D060002202F2F07F002202D243001CCC
:20C860000B3CB2D00600220392C32203F2F01F002202F2400600001C5F42261C0F9C142C03
:20C880005D930924F2D0E0002202B2F0F8FF2203C243001C1001B2D007002203F2F01F0016
:20C8A0002202F2400700001C10013A1418411400B01374C9694B1C530D633A3C1C530D634B
:20C8C000089315243B900001122C2743CA0D0F184A5A00184ADC6A4A4A4A4B4B8B100BDAD2
:20C8E0001C530D631783F223023C2B920928CA0D0F184A5A00184ADC674A1C530D630B3CC7
:20C90000C709093CCA0F0F184A5A00184ADECA4700001E530F631B833B93F423093CCB0F88
:20C920000F184B5B00184BDECB4A00001E530F63B01374C96A4B1C530D634A99F023B013A4
:20C9400074C96B4B4B4B1C530D630B93CE23B01374C96B4B4B4B4B4B8B101C530D63CA0DAD
:20C960000F184A5A00184ADC6A4A4A4A0B5AA62337161001CB0D0F184B5B00184BDC1001E5
:20C980004F14B2F0F0FF2203F2F00F0022021F423E022F8341242F835820B01316D04C434F
:20C9A000B01386CFE2C33D02C293191C0324D293161C2F24D243191CC243111CC293171CDC
:20C9C0000520C293181C0224E242101CC293171C0620C293181C0320F2400500101CE29202
:20C9E000171C0328F2400500101CC293171C0624E292171C032CD242171C101CD252101C2B
:20CA0000101CC243181CC243171CB1C0F00014001C3CD2E3121C193CB01316D0C243191C91
:20CA2000D243111CD2C33D025F42171CD24F2AC22202D253171CE292171C0428C243171C78
:20CA4000D253181C4C43B01386CF4B160013F240A5006101B2D006006201B24033016401B3
:20CA600082436601D2436101B2D2B00192C3B001F2D003002302F2F0FC002502F2D0030024
:20CA80002702F2F0FC003902F24003003B02C2433D02F2F00F002202F2D0F0002402B2F00F
:20CAA000F0FF2203B2D00F002403F2F010000202F2F010000402F2D0EF000602F2F0EF0032
:20CAC0000202F2D010000402F2F083000302F2F083000502F2D07C000702F2D003000D0289
:20CAE000F2F0FC000B02F2F07F000302F2D080000502F2F0F8002202F2F0F8002402F2D0DC
:20CB000007002602B2F0CFFF2203B2F0CFFF2403B2D03000260310010A14318291421AC24E
:20CB2000000091421CC2020091421EC20400914220C206003B400A006F425E43B2F0F0FF68
:20CB40002203F2F00F0022024E9317206F92132C4D4FCE012E520E5D4D4F0D514F4F2C42E7
:20CB60000C8F6F42F24E22027A4D824A2203B013A6CF1C83F7235E43153C4F9312244D4FB6
:20CB8000CE013E5003000D5EE24D22024D4FCE013E530D5E6E4D824E2203B013A6CF5F8346
:20CBA000EE234E431B83CA23B2F0F0FF2203F2F00F00220231520A161001B240805A5C01A0
:20CBC000B0134ECAB01318CBB24000D4141C153CC293111C1220F2E080002202B013A6CF2B
:20CBE000F2900900101CF42F083CB013DEC6053CB01308C5023CB01300C4C243161CC243DE
:20CC0000191CC243121C32D0F80003435F42101C2F8307242F83EF272F83EA272F83E52779
:20CC2000DF3FB013F4C5E93F03431A143F4012C23F900BC222283F401AC23F9013C21D2841
:20CC40003A401AC23A8012C23A5007005A09394012C23C493D49CF0D0F184F5F00184FDCB0
:20CC60006F4F4F4F5F0600185B4F0AC21C530D633E493F494B131A83EC233F4000003F901F
:20CC8000000008243A400000023C6A132A523A900000FB2319161001F2D007002A02F2D0D8
:20CCA00007002C02F2F0F8002402F2D080000502F2D0800003021E143D40996F0E431D8307
:20CCC0000E73FD230D93FB231D16003CA2C30007B24010050007B24000020207B24010000D
:20CCE0000407B2400C000A0782431E0792D31A07F2401900241CF2403200251CF2404B00FD
:20CD0000261C10013182914222C20000914224C20200914226C20400914228C206006C921B
:20CD20001228B2F0F0FF2203F2F00F002202D2D1070022024F4CCC013C50FCFF0C5F6F4C0B
:20CD400082DF22030C3CB2F0F0FF2203F2F00F0022024F4CCC012C520C5FE2DC2202315284
:20CD60001001F2D080000502F2D080000302F2D010000C02F2D010000A020D143D4017415E
:20CD80001D83FE230D160343A2C30007B24010070007B24000020207B24010000407A242FF
:20CDA0000A0792431A07F2400F00241CF2401900251CF2402D00261C10010A141A4108002C
:20CDC0001B410A000F184D5D00184DDC0F184F5F00184FDE0B9302200A930D240C430E4393
:20CDE000AD000100FD4FFFFF1C530E630E9BF82B02200C9AF52B0A1610010A142182CB0CDE
:20CE0000CA0DCC0ECD0FCE0BCF0ACA0ECB0F1A530B630F184B5B00184BDA1A4B0200A14BE9
:20CE20000000814A02003E5005000F63B013BACD21520A161001D2D3C005F2408000C00551
:20CE4000F2403400C605C243C705B2401149C805D2C3C0053E4007003F401C1CA2B3DC05EB
:20CE6000FD277D4F824DCE051E83F82310010F14B2900C001E071520924212071A1C1F4204
:20CE8000141C9F421A1C0000A253141C1F42141C3F9001F00328B24000D4141CB1C0100033
:20CEA00004000F160013B01316D03F4032000C43F2E01000220292B30207FD23B2D0030094
:20CEC000000732D0180003431C521A1C1F83F023B01334D03D4032008000DACFF2F0F80019
:20CEE0002A02F2F0F8002C02F2F0F8002402F2F07F000502F2F07F000302B2F0EDFF00079B
:20CF000092C31A0782431C071001F240FA001C1CF240FE00221C7F405500C24F1D1CC24F61
:20CF20001E1CC24F1F1CC24F201C12C34C10C24C211C800036CE3C9000D410283C9000F08A
:20CF40000D2C3D4078563E4034123F4080002C528C4DFCFF8C4EFEFF1F83F9231001F2F0B0
:20CF60007F000502F2F07F000302F2F0EF000C02F2F0EF000A02B2F0EDFF000792C31A07FE
:20CF800082431C071001B240100082034C930420B240DC059203033CB240EE029203B240FE
:20CFA0001001800310011E143D40808B0E431D830E73FD230D93FB231D16034303431001F2
:20CFC00031400020B01348D00C930224B0132ACC0C43B013BACBB0134CD00E430F4C1C43E6
:20CFE0005F020E6E0E9D01280E8D0C6CF92B100192B30207FD23B2D00300000732D0180024
:20D00000034310014F148243820382438003B01334D04B160013C2433D02F2F0FC003B022A
:20D02000C2433D021001218391430000B013AAC821531001C2433D02F24003003B021001A2
:10D04000B1C0F000000000131C4310010343FF3F78
:00000001FF
